{
  "_format": "hh-sol-artifact-1",
  "contractName": "EduWordle",
  "sourceName": "contracts/EduWordle.sol",
  "abi": [
    {
      "inputs": [
        {
          "internalType": "address",
          "name": "_cusdToken",
          "type": "address"
        },
        {
          "internalType": "uint256",
          "name": "_baseRewardAmount",
          "type": "uint256"
        },
        {
          "internalType": "uint256",
          "name": "_hintPrice",
          "type": "uint256"
        },
        {
          "internalType": "uint256",
          "name": "_streakBonusBps",
          "type": "uint256"
        }
      ],
      "stateMutability": "nonpayable",
      "type": "constructor"
    },
    {
      "inputs": [
        {
          "internalType": "address",
          "name": "owner",
          "type": "address"
        }
      ],
      "name": "OwnableInvalidOwner",
      "type": "error"
    },
    {
      "inputs": [
        {
          "internalType": "address",
          "name": "account",
          "type": "address"
        }
      ],
      "name": "OwnableUnauthorizedAccount",
      "type": "error"
    },
    {
      "inputs": [],
      "name": "ReentrancyGuardReentrantCall",
      "type": "error"
    },
    {
      "inputs": [
        {
          "internalType": "address",
          "name": "token",
          "type": "address"
        }
      ],
      "name": "SafeERC20FailedOperation",
      "type": "error"
    },
    {
      "anonymous": false,
      "inputs": [
        {
          "indexed": false,
          "internalType": "uint256",
          "name": "oldPrice",
          "type": "uint256"
        },
        {
          "indexed": false,
          "internalType": "uint256",
          "name": "newPrice",
          "type": "uint256"
        }
      ],
      "name": "HintPriceUpdated",
      "type": "event"
    },
    {
      "anonymous": false,
      "inputs": [
        {
          "indexed": true,
          "internalType": "address",
          "name": "buyer",
          "type": "address"
        },
        {
          "indexed": true,
          "internalType": "uint256",
          "name": "day",
          "type": "uint256"
        },
        {
          "indexed": false,
          "internalType": "uint256",
          "name": "hintNumber",
          "type": "uint256"
        }
      ],
      "name": "HintPurchased",
      "type": "event"
    },
    {
      "anonymous": false,
      "inputs": [
        {
          "indexed": true,
          "internalType": "address",
          "name": "previousOwner",
          "type": "address"
        },
        {
          "indexed": true,
          "internalType": "address",
          "name": "newOwner",
          "type": "address"
        }
      ],
      "name": "OwnershipTransferred",
      "type": "event"
    },
    {
      "anonymous": false,
      "inputs": [
        {
          "indexed": true,
          "internalType": "uint256",
          "name": "day",
          "type": "uint256"
        },
        {
          "indexed": false,
          "internalType": "bytes32",
          "name": "solutionHash",
          "type": "bytes32"
        }
      ],
      "name": "PuzzleInitialized",
      "type": "event"
    },
    {
      "anonymous": false,
      "inputs": [
        {
          "indexed": true,
          "internalType": "address",
          "name": "solver",
          "type": "address"
        },
        {
          "indexed": true,
          "internalType": "uint256",
          "name": "day",
          "type": "uint256"
        },
        {
          "indexed": false,
          "internalType": "uint256",
          "name": "reward",
          "type": "uint256"
        },
        {
          "indexed": false,
          "internalType": "uint256",
          "name": "streak",
          "type": "uint256"
        }
      ],
      "name": "PuzzleSolved",
      "type": "event"
    },
    {
      "anonymous": false,
      "inputs": [
        {
          "indexed": false,
          "internalType": "uint256",
          "name": "oldAmount",
          "type": "uint256"
        },
        {
          "indexed": false,
          "internalType": "uint256",
          "name": "newAmount",
          "type": "uint256"
        }
      ],
      "name": "RewardAmountUpdated",
      "type": "event"
    },
    {
      "anonymous": false,
      "inputs": [
        {
          "indexed": true,
          "internalType": "address",
          "name": "claimer",
          "type": "address"
        },
        {
          "indexed": false,
          "internalType": "uint256",
          "name": "amount",
          "type": "uint256"
        }
      ],
      "name": "RewardClaimed",
      "type": "event"
    },
    {
      "anonymous": false,
      "inputs": [
        {
          "indexed": false,
          "internalType": "uint256",
          "name": "oldBonus",
          "type": "uint256"
        },
        {
          "indexed": false,
          "internalType": "uint256",
          "name": "newBonus",
          "type": "uint256"
        }
      ],
      "name": "StreakBonusUpdated",
      "type": "event"
    },
    {
      "anonymous": false,
      "inputs": [
        {
          "indexed": true,
          "internalType": "address",
          "name": "funder",
          "type": "address"
        },
        {
          "indexed": false,
          "internalType": "uint256",
          "name": "amount",
          "type": "uint256"
        }
      ],
      "name": "TreasuryFunded",
      "type": "event"
    },
    {
      "anonymous": false,
      "inputs": [
        {
          "indexed": true,
          "internalType": "address",
          "name": "owner",
          "type": "address"
        },
        {
          "indexed": false,
          "internalType": "uint256",
          "name": "amount",
          "type": "uint256"
        }
      ],
      "name": "TreasuryWithdrawn",
      "type": "event"
    },
    {
      "inputs": [],
      "name": "baseRewardAmount",
      "outputs": [
        {
          "internalType": "uint256",
          "name": "",
          "type": "uint256"
        }
      ],
      "stateMutability": "view",
      "type": "function"
    },
    {
      "inputs": [],
      "name": "buyHint",
      "outputs": [],
      "stateMutability": "nonpayable",
      "type": "function"
    },
    {
      "inputs": [],
      "name": "currentDay",
      "outputs": [
        {
          "internalType": "uint256",
          "name": "",
          "type": "uint256"
        }
      ],
      "stateMutability": "view",
      "type": "function"
    },
    {
      "inputs": [],
      "name": "currentSolutionHash",
      "outputs": [
        {
          "internalType": "bytes32",
          "name": "",
          "type": "bytes32"
        }
      ],
      "stateMutability": "view",
      "type": "function"
    },
    {
      "inputs": [],
      "name": "cusdToken",
      "outputs": [
        {
          "internalType": "contract IERC20",
          "name": "",
          "type": "address"
        }
      ],
      "stateMutability": "view",
      "type": "function"
    },
    {
      "inputs": [
        {
          "internalType": "uint256",
          "name": "amount",
          "type": "uint256"
        }
      ],
      "name": "fundTreasury",
      "outputs": [],
      "stateMutability": "nonpayable",
      "type": "function"
    },
    {
      "inputs": [],
      "name": "getCurrentDay",
      "outputs": [
        {
          "internalType": "uint256",
          "name": "",
          "type": "uint256"
        }
      ],
      "stateMutability": "view",
      "type": "function"
    },
    {
      "inputs": [
        {
          "internalType": "address",
          "name": "user",
          "type": "address"
        }
      ],
      "name": "getHintsPurchased",
      "outputs": [
        {
          "internalType": "uint256",
          "name": "",
          "type": "uint256"
        }
      ],
      "stateMutability": "view",
      "type": "function"
    },
    {
      "inputs": [
        {
          "internalType": "address",
          "name": "user",
          "type": "address"
        }
      ],
      "name": "getRewardAmount",
      "outputs": [
        {
          "internalType": "uint256",
          "name": "",
          "type": "uint256"
        }
      ],
      "stateMutability": "view",
      "type": "function"
    },
    {
      "inputs": [],
      "name": "getTotalSolversToday",
      "outputs": [
        {
          "internalType": "uint256",
          "name": "",
          "type": "uint256"
        }
      ],
      "stateMutability": "view",
      "type": "function"
    },
    {
      "inputs": [
        {
          "internalType": "address",
          "name": "user",
          "type": "address"
        }
      ],
      "name": "getUserStreak",
      "outputs": [
        {
          "internalType": "uint256",
          "name": "",
          "type": "uint256"
        }
      ],
      "stateMutability": "view",
      "type": "function"
    },
    {
      "inputs": [
        {
          "internalType": "uint256",
          "name": "",
          "type": "uint256"
        },
        {
          "internalType": "address",
          "name": "",
          "type": "address"
        }
      ],
      "name": "hasClaimed",
      "outputs": [
        {
          "internalType": "bool",
          "name": "",
          "type": "bool"
        }
      ],
      "stateMutability": "view",
      "type": "function"
    },
    {
      "inputs": [
        {
          "internalType": "address",
          "name": "user",
          "type": "address"
        }
      ],
      "name": "hasUserClaimed",
      "outputs": [
        {
          "internalType": "bool",
          "name": "",
          "type": "bool"
        }
      ],
      "stateMutability": "view",
      "type": "function"
    },
    {
      "inputs": [],
      "name": "hintPrice",
      "outputs": [
        {
          "internalType": "uint256",
          "name": "",
          "type": "uint256"
        }
      ],
      "stateMutability": "view",
      "type": "function"
    },
    {
      "inputs": [
        {
          "internalType": "uint256",
          "name": "",
          "type": "uint256"
        },
        {
          "internalType": "address",
          "name": "",
          "type": "address"
        }
      ],
      "name": "hintsPurchased",
      "outputs": [
        {
          "internalType": "uint256",
          "name": "",
          "type": "uint256"
        }
      ],
      "stateMutability": "view",
      "type": "function"
    },
    {
      "inputs": [
        {
          "internalType": "bytes32",
          "name": "_solutionHash",
          "type": "bytes32"
        }
      ],
      "name": "initializeDay",
      "outputs": [],
      "stateMutability": "nonpayable",
      "type": "function"
    },
    {
      "inputs": [
        {
          "internalType": "address",
          "name": "solver",
          "type": "address"
        }
      ],
      "name": "isTodaySolver",
      "outputs": [
        {
          "internalType": "bool",
          "name": "",
          "type": "bool"
        }
      ],
      "stateMutability": "view",
      "type": "function"
    },
    {
      "inputs": [
        {
          "internalType": "address",
          "name": "",
          "type": "address"
        }
      ],
      "name": "lastSolvedDay",
      "outputs": [
        {
          "internalType": "uint256",
          "name": "",
          "type": "uint256"
        }
      ],
      "stateMutability": "view",
      "type": "function"
    },
    {
      "inputs": [],
      "name": "leaderboardContract",
      "outputs": [
        {
          "internalType": "address",
          "name": "",
          "type": "address"
        }
      ],
      "stateMutability": "view",
      "type": "function"
    },
    {
      "inputs": [],
      "name": "maxHintsPerDay",
      "outputs": [
        {
          "internalType": "uint256",
          "name": "",
          "type": "uint256"
        }
      ],
      "stateMutability": "view",
      "type": "function"
    },
    {
      "inputs": [],
      "name": "owner",
      "outputs": [
        {
          "internalType": "address",
          "name": "",
          "type": "address"
        }
      ],
      "stateMutability": "view",
      "type": "function"
    },
    {
      "inputs": [],
      "name": "renounceOwnership",
      "outputs": [],
      "stateMutability": "nonpayable",
      "type": "function"
    },
    {
      "inputs": [
        {
          "internalType": "uint256",
          "name": "_newAmount",
          "type": "uint256"
        }
      ],
      "name": "setBaseRewardAmount",
      "outputs": [],
      "stateMutability": "nonpayable",
      "type": "function"
    },
    {
      "inputs": [
        {
          "internalType": "uint256",
          "name": "_newPrice",
          "type": "uint256"
        }
      ],
      "name": "setHintPrice",
      "outputs": [],
      "stateMutability": "nonpayable",
      "type": "function"
    },
    {
      "inputs": [
        {
          "internalType": "address",
          "name": "_leaderboardContract",
          "type": "address"
        }
      ],
      "name": "setLeaderboardContract",
      "outputs": [],
      "stateMutability": "nonpayable",
      "type": "function"
    },
    {
      "inputs": [
        {
          "internalType": "uint256",
          "name": "_maxHints",
          "type": "uint256"
        }
      ],
      "name": "setMaxHintsPerDay",
      "outputs": [],
      "stateMutability": "nonpayable",
      "type": "function"
    },
    {
      "inputs": [
        {
          "internalType": "uint256",
          "name": "_newBonus",
          "type": "uint256"
        }
      ],
      "name": "setStreakBonus",
      "outputs": [],
      "stateMutability": "nonpayable",
      "type": "function"
    },
    {
      "inputs": [],
      "name": "streakBonusBps",
      "outputs": [
        {
          "internalType": "uint256",
          "name": "",
          "type": "uint256"
        }
      ],
      "stateMutability": "view",
      "type": "function"
    },
    {
      "inputs": [
        {
          "internalType": "string",
          "name": "guess",
          "type": "string"
        }
      ],
      "name": "submitAnswer",
      "outputs": [],
      "stateMutability": "nonpayable",
      "type": "function"
    },
    {
      "inputs": [],
      "name": "totalSolversToday",
      "outputs": [
        {
          "internalType": "uint256",
          "name": "",
          "type": "uint256"
        }
      ],
      "stateMutability": "view",
      "type": "function"
    },
    {
      "inputs": [
        {
          "internalType": "address",
          "name": "newOwner",
          "type": "address"
        }
      ],
      "name": "transferOwnership",
      "outputs": [],
      "stateMutability": "nonpayable",
      "type": "function"
    },
    {
      "inputs": [],
      "name": "treasuryBalance",
      "outputs": [
        {
          "internalType": "uint256",
          "name": "",
          "type": "uint256"
        }
      ],
      "stateMutability": "view",
      "type": "function"
    },
    {
      "inputs": [
        {
          "internalType": "address",
          "name": "",
          "type": "address"
        }
      ],
      "name": "userStreaks",
      "outputs": [
        {
          "internalType": "uint256",
          "name": "",
          "type": "uint256"
        }
      ],
      "stateMutability": "view",
      "type": "function"
    },
    {
      "inputs": [
        {
          "internalType": "uint256",
          "name": "amount",
          "type": "uint256"
        },
        {
          "internalType": "address",
          "name": "to",
          "type": "address"
        }
      ],
      "name": "withdrawFunds",
      "outputs": [],
      "stateMutability": "nonpayable",
      "type": "function"
    }
  ],
  "bytecode": "0x60a060405234801561001057600080fd5b50604051611da3380380611da383398101604081905261002f91610232565b338061005657604051631e4fbdf760e01b8152600060048201526024015b60405180910390fd5b61005f816101e2565b50600180556001600160a01b0384166100ba5760405162461bcd60e51b815260206004820152601f60248201527f456475576f72646c653a20496e76616c69642063555344206164647265737300604482015260640161004d565b6000831161010a5760405162461bcd60e51b815260206004820181905260248201527f456475576f72646c653a20496e76616c69642072657761726420616d6f756e74604482015260640161004d565b6000821161015a5760405162461bcd60e51b815260206004820152601d60248201527f456475576f72646c653a20496e76616c69642068696e74207072696365000000604482015260640161004d565b6127108111156101b85760405162461bcd60e51b815260206004820152602360248201527f456475576f72646c653a20426f6e75732063616e6e6f7420657863656564203160448201526230302560e81b606482015260840161004d565b6001600160a01b03909316608052600491909155600655600555600360078190556000905561027d565b600080546001600160a01b038381166001600160a01b0319831681178455604051919092169283917f8be0079c531659141344cd1fd0a4f28419497f9722a3daafe3b4186f6b6457e09190a35050565b6000806000806080858703121561024857600080fd5b84516001600160a01b038116811461025f57600080fd5b60208601516040870151606090970151919890975090945092505050565b608051611aef6102b460003960008181610423015281816106bc0152818161091201528181610dbc0152610fac0152611aef6000f3fe608060405234801561001057600080fd5b50600436106102065760003560e01c80638da5cb5b1161011a578063ca7c2952116100ad578063df986d881161007c578063df986d881461046e578063f2fde38b14610477578063f6471f4b1461048a578063fd425eea1461049d578063ff0224d3146104b057600080fd5b8063ca7c29521461040b578063cae078431461041e578063d0a723dc14610445578063d291d1f21461044e57600080fd5b8063a4d4b681116100e9578063a4d4b681146103b4578063b38d33f8146103bc578063bb3e3159146103cf578063c57f2dfd146103e257600080fd5b80638da5cb5b1461036a57806395f811501461038f578063a195b69c14610398578063a3dcf265146103ab57600080fd5b8063715018a61161019d57806378c5be441161016c57806378c5be44146102eb5780638585081d1461030e57806386f3c89614610316578063873f6f9e146103295780638a560c1a1461035757600080fd5b8063715018a614610292578063744bfe611461029a5780637522cc49146102ad578063765d422a146102d857600080fd5b806341e617b9116101d957806341e617b91461025857806344a040f51461026d5780635c9302c9146102805780635eaa71791461028957600080fd5b80632e0d72fb1461020b578063313dab20146102275780633e6968b6146102305780633e6d883c14610238575b600080fd5b61021460025481565b6040519081526020015b60405180910390f35b61021460085481565b6102146104c3565b61021461024636600461179e565b600c6020526000908152604090205481565b61026b6102663660046117b9565b6104e4565b005b61021461027b36600461179e565b610595565b61021460035481565b61021460065481565b61026b6105b3565b61026b6102a83660046117d2565b6105c7565b6102146102bb3660046117d2565b600a60209081526000928352604080842090915290825290205481565b61026b6102e63660046117b9565b61072a565b6102fe6102f936600461179e565b6107c0565b604051901515815260200161021e565b61026b6107d3565b61021461032436600461179e565b6109e0565b6102fe6103373660046117d2565b600960209081526000928352604080842090915290825290205460ff1681565b61026b6103653660046117b9565b610a17565b6000546001600160a01b03165b6040516001600160a01b03909116815260200161021e565b61021460045481565b6102fe6103a636600461179e565b610ae4565b61021460075481565b600f54610214565b61026b6103ca36600461179e565b610b1e565b61026b6103dd366004611814565b610b48565b6102146103f036600461179e565b6001600160a01b03166000908152600b602052604090205490565b61026b6104193660046117b9565b610f37565b6103777f000000000000000000000000000000000000000000000000000000000000000081565b610214600f5481565b61021461045c36600461179e565b600b6020526000908152604090205481565b61021460055481565b61026b61048536600461179e565b610f44565b61026b6104983660046117b9565b610f7f565b61026b6104ab3660046117b9565b611023565b601054610377906001600160a01b031681565b60006104d262015180426118e3565b6104df9062015180611905565b905090565b6104ec6110b9565b61271081111561054f5760405162461bcd60e51b815260206004820152602360248201527f456475576f72646c653a20426f6e75732063616e6e6f7420657863656564203160448201526230302560e81b60648201526084015b60405180910390fd5b600580549082905560408051828152602081018490527f68e1e726df31cd32476112dddda349d069df4c8367eb97342aaf52df7a0fcb9991015b60405180910390a15050565b6000806105a06104c3565b90506105ac83826110e6565b9392505050565b6105bb6110b9565b6105c560006111ab565b565b6105cf6110b9565b6001600160a01b0381166106255760405162461bcd60e51b815260206004820152601c60248201527f456475576f72646c653a20496e76616c696420726563697069656e74000000006044820152606401610546565b600082116106455760405162461bcd60e51b81526004016105469061191c565b8160085410156106975760405162461bcd60e51b815260206004820152601f60248201527f456475576f72646c653a20496e73756666696369656e742062616c616e6365006044820152606401610546565b81600860008282546106a99190611964565b909155506106e390506001600160a01b037f00000000000000000000000000000000000000000000000000000000000000001682846111fb565b806001600160a01b03167f41fdd680478135993bc53fb2ffaf9560951b57ef62ff6badd02b61e018b4f17f8360405161071e91815260200190565b60405180910390a25050565b6107326110b9565b600081116107825760405162461bcd60e51b815260206004820152601d60248201527f456475576f72646c653a20496e76616c69642068696e742070726963650000006044820152606401610546565b600680549082905560408051828152602081018490527f25a0eebea470d6562bfb91009ae08ef4d05c2eb67a3d958450b0ce5aa9ac36119101610589565b60006107cd600d8361125f565b92915050565b6107db611281565b6006548060085410156108005760405162461bcd60e51b815260040161054690611977565b600061080a6104c3565b9050806003541461082d5760405162461bcd60e51b8152600401610546906119bd565b6007546000828152600a60209081526040808320338452909152902054106108975760405162461bcd60e51b815260206004820152601c60248201527f456475576f72646c653a204d61782068696e74732072656163686564000000006044820152606401610546565b600081815260096020908152604080832033845290915290205460ff16156109015760405162461bcd60e51b815260206004820152601f60248201527f456475576f72646c653a20416c726561647920736f6c76656420746f646179006044820152606401610546565b60065461093c906001600160a01b037f00000000000000000000000000000000000000000000000000000000000000001690339030906112ab565b600654600860008282546109509190611a08565b90915550506000818152600a60209081526040808320338452909152812080549161097a83611a1b565b90915550506000818152600a602090815260408083203380855292529182902054915183927fce50b2158bf409b5b55ad54ccffe9b89027bf166abb2f5947b2ee72dbfb8b789916109cd91815260200190565b60405180910390a350506105c560018055565b6000806109eb6104c3565b6000908152600a602090815260408083206001600160a01b039096168352949052929092205492915050565b610a1f6110b9565b6000610a296104c3565b90506003548103610a875760405162461bcd60e51b815260206004820152602260248201527f456475576f72646c653a2044617920616c726561647920696e697469616c697a604482015261195960f21b6064820152608401610546565b6000610a916104c3565b9050610a9b6112ea565b600283905560038190556000600f5560405183815281907f7b090c70b2a7f8ca0412af5e9f811d91773262331db1f78435676bdb6dc816d99060200160405180910390a2505050565b600080610aef6104c3565b60009081526009602090815260408083206001600160a01b039096168352949052929092205460ff1692915050565b610b266110b9565b601080546001600160a01b0319166001600160a01b0392909216919091179055565b610b50611281565b6000610b5a6104c3565b90508060035414610b7d5760405162461bcd60e51b8152600401610546906119bd565b600081815260096020908152604080832033845290915290205460ff1615610be75760405162461bcd60e51b815260206004820181905260248201527f456475576f72646c653a20416c726561647920636c61696d656420746f6461796044820152606401610546565b8151600514610c435760405162461bcd60e51b815260206004820152602260248201527f456475576f72646c653a204775657373206d7573742062652035206c65747465604482015261727360f01b6064820152608401610546565b600254610c925760405162461bcd60e51b815260206004820152601860248201527f456475576f72646c653a204e6f2070757a7a6c652073657400000000000000006044820152606401610546565b6000610c9d83611327565b604051602001610cad9190611a58565b6040516020818303038152906040528051906020012090506002548114610d165760405162461bcd60e51b815260206004820152601b60248201527f456475576f72646c653a20496e636f727265637420616e7377657200000000006044820152606401610546565b6000828152600960209081526040808320338085529252909120805460ff19166001179055610d4790600d9061148e565b50600f8054906000610d5883611a1b565b9190505550610d6733836114a3565b6000610d7333846110e6565b9050806008541015610d975760405162461bcd60e51b815260040161054690611977565b8060086000828254610da99190611964565b90915550610de390506001600160a01b037f00000000000000000000000000000000000000000000000000000000000000001633836111fb565b6010546001600160a01b031615610ea857601054336000818152600b60205260408082205490516024810193909352604483018590526064830152916001600160a01b03169060840160408051601f198184030181529181526020820180516001600160e01b03166352c446e160e01b17905251610e619190611a58565b6000604051808303816000865af19150503d8060008114610e9e576040519150601f19603f3d011682016040523d82523d6000602084013e610ea3565b606091505b505050505b336000818152600b6020908152604091829020548251858152918201528592917f71b77f82903ffebb73ed50aa4c8aa2030f9372f59223bf16d1009464459c8cbc910160405180910390a360405181815233907f106f923f993c2149d49b4255ff723acafa1f2d94393f561d3eda32ae348f72419060200160405180910390a2505050610f3460018055565b50565b610f3f6110b9565b600755565b610f4c6110b9565b6001600160a01b038116610f7657604051631e4fbdf760e01b815260006004820152602401610546565b610f34816111ab565b60008111610f9f5760405162461bcd60e51b81526004016105469061191c565b610fd46001600160a01b037f0000000000000000000000000000000000000000000000000000000000000000163330846112ab565b8060086000828254610fe69190611a08565b909155505060405181815233907fda1785fe1dec267c363b06ae3e02c3e086123f9d611399f7a1cc98492518372e9060200160405180910390a250565b61102b6110b9565b6000811161107b5760405162461bcd60e51b815260206004820181905260248201527f456475576f72646c653a20496e76616c69642072657761726420616d6f756e746044820152606401610546565b600480549082905560408051828152602081018490527ff0d37c3ae852021ac329281f604b658691cbfa6b9e9c22909f06b64a8ce87c949101610589565b6000546001600160a01b031633146105c55760405163118cdaa760e01b8152336004820152602401610546565b6001600160a01b0382166000908152600b6020908152604080832054600c9092528220541580159061113b57506111206201518084611964565b6001600160a01b0385166000908152600c6020526040902054105b1561114a5750506004546107cd565b60018111156111a0576000612710611163600184611964565b6005546004546111739190611905565b61117d9190611905565b61118791906118e3565b9050806004546111979190611a08565b925050506107cd565b505060045492915050565b600080546001600160a01b038381166001600160a01b0319831681178455604051919092169283917f8be0079c531659141344cd1fd0a4f28419497f9722a3daafe3b4186f6b6457e09190a35050565b6040516001600160a01b0383811660248301526044820183905261125a91859182169063a9059cbb906064015b604051602081830303815290604052915060e01b6020820180516001600160e01b03838183161783525050505061157a565b505050565b6001600160a01b038116600090815260018301602052604081205415156105ac565b6002600154036112a457604051633ee5aeb560e01b815260040160405180910390fd5b6002600155565b6040516001600160a01b0384811660248301528381166044830152606482018390526112e49186918216906323b872dd90608401611228565b50505050565b60006112f6600d6115eb565b905060005b818110156113235761131a611312600d60006115f5565b600d90611601565b506001016112fb565b5050565b606060008290506000815167ffffffffffffffff81111561134a5761134a6117fe565b6040519080825280601f01601f191660200182016040528015611374576020820181803683370190505b50905060005b825181101561148657606160f81b83828151811061139a5761139a611a74565b01602001516001600160f81b031916108015906113db5750607a60f81b8382815181106113c9576113c9611a74565b01602001516001600160f81b03191611155b156114375760208382815181106113f4576113f4611a74565b0160200151611406919060f81c611a8a565b60f81b82828151811061141b5761141b611a74565b60200101906001600160f81b031916908160001a90535061147e565b82818151811061144957611449611a74565b602001015160f81c60f81b82828151811061146657611466611a74565b60200101906001600160f81b031916908160001a9053505b60010161137a565b509392505050565b60006105ac836001600160a01b038416611616565b6001600160a01b0382166000908152600c6020526040812054908190036114e5576001600160a01b0383166000908152600b602052604090206001905561155d565b6114f26201518083611964565b810361152c576001600160a01b0383166000908152600b60205260408120805460019290611521908490611a08565b9091555061155d9050565b6115396201518083611964565b81101561155d576001600160a01b0383166000908152600b60205260409020600190555b506001600160a01b039091166000908152600c6020526040902055565b600080602060008451602086016000885af18061159d576040513d6000823e3d81fd5b50506000513d915081156115b55780600114156115c2565b6001600160a01b0384163b155b156112e457604051635274afe760e01b81526001600160a01b0385166004820152602401610546565b60006107cd825490565b60006105ac8383611665565b60006105ac836001600160a01b03841661168f565b600081815260018301602052604081205461165d575081546001818101845560008481526020808220909301849055845484825282860190935260409020919091556107cd565b5060006107cd565b600082600001828154811061167c5761167c611a74565b9060005260206000200154905092915050565b600081815260018301602052604081205480156117785760006116b3600183611964565b85549091506000906116c790600190611964565b905080821461172c5760008660000182815481106116e7576116e7611a74565b906000526020600020015490508087600001848154811061170a5761170a611a74565b6000918252602080832090910192909255918252600188019052604090208390555b855486908061173d5761173d611aa3565b6001900381819060005260206000200160009055905585600101600086815260200190815260200160002060009055600193505050506107cd565b60009150506107cd565b80356001600160a01b038116811461179957600080fd5b919050565b6000602082840312156117b057600080fd5b6105ac82611782565b6000602082840312156117cb57600080fd5b5035919050565b600080604083850312156117e557600080fd5b823591506117f560208401611782565b90509250929050565b634e487b7160e01b600052604160045260246000fd5b60006020828403121561182657600080fd5b813567ffffffffffffffff81111561183d57600080fd5b8201601f8101841361184e57600080fd5b803567ffffffffffffffff811115611868576118686117fe565b604051601f8201601f19908116603f0116810167ffffffffffffffff81118282101715611897576118976117fe565b6040528181528282016020018610156118af57600080fd5b81602084016020830137600091810160200191909152949350505050565b634e487b7160e01b600052601160045260246000fd5b60008261190057634e487b7160e01b600052601260045260246000fd5b500490565b80820281158282048414176107cd576107cd6118cd565b60208082526028908201527f456475576f72646c653a20416d6f756e74206d75737420626520677265617465604082015267072207468616e20360c41b606082015260800190565b818103818111156107cd576107cd6118cd565b60208082526026908201527f456475576f72646c653a20496e73756666696369656e742074726561737572796040820152652066756e647360d01b606082015260800190565b6020808252602b908201527f456475576f72646c653a2050757a7a6c65206e6f7420696e697469616c697a6560408201526a6420666f7220746f64617960a81b606082015260800190565b808201808211156107cd576107cd6118cd565b600060018201611a2d57611a2d6118cd565b5060010190565b60005b83811015611a4f578181015183820152602001611a37565b50506000910152565b60008251611a6a818460208701611a34565b9190910192915050565b634e487b7160e01b600052603260045260246000fd5b60ff82811682821603908111156107cd576107cd6118cd565b634e487b7160e01b600052603160045260246000fdfea26469706673582212206cfd35b30fcdb43b74c4f3dd74675d4363ca0af67d444dee866883be5826ec0364736f6c634300081c0033",
  "linkReferences": {},
  "deployedLinkReferences": {}
}